:100000000C946C000C9494000C9494000C94940048
:100010000C9494000C9494000C9494000C94940010
:100020000C9494000C9494000C9494000C94940000
:100030000C9494000C9494000C9494000C949400F0
:100040000C9407060C9494000C94D5050C94AF0501
:100050000C9494000C9494000C9494000C949400D0
:100060000C9451060C94940005A84CCDB2D44EB912
:100070003836A9020C50B9918688083CA6AAAA2A4B
:10008000BE000000803F00000008000201000003E5
:100090000407000000000000000000000000250030
:1000A00028002B0000000000240027002A00040480
:1000B0000404040404040202020202020303030310
:1000C00003030102040810204080010204081020EC
:1000D0000102040810207F0711241FBECFEFD8E0D3
:1000E000DEBFCDBF11E0A0E0B1E0E2E3FBE102C082
:1000F00005900D92AA35B107D9F726E0AAE5B1E03F
:1001000001C01D92AD35B207E1F710E0CCE6D0E0BA
:1001100004C02197FE010E94B40ACB36D107C9F76B
:100120000E94E2070C94970D0C94000090E0FC01F3
:10013000EE53FF4F2491FC01E255FF4F8491882339
:1001400099F090E0880F991FFC01EC55FF4FA591A5
:10015000B491FC01E656FF4F859194918FB7F894C6
:10016000EC91E22BEC938FBF0895E091F901F091AF
:10017000FA01309729F01092F0011092EF010994E2
:100180000895CF93DF93AC01E091F701F091F8016E
:100190003097F1F09091F2018091F1019817C0F041
:1001A00090E0292F30E02617370754F4D901A55ADB
:1001B000BE4FEA01C20FD31F88818C939F5FF1CF9E
:1001C0001092F2016093F101CB01DF91CF9109947C
:1001D000DF91CF910895CF92DF92EF92FF920F932C
:1001E0001F93CF93DF936C017A018B01C0E0D0E0C5
:1001F000CE15DF0589F0D8016D918D01D601ED9105
:10020000FC910190F081E02DC6010995892B11F434
:100210007E0102C02196ECCFC701DF91CF911F91E3
:100220000F91FF90EF90DF90CF900895FC01918D9A
:10023000828D981761F0828DDF01A80FB11D5D9648
:100240008C91928D9F5F9F73928F90E008958FEFB6
:100250009FEF0895FC01918D828D981731F0828D6A
:10026000E80FF11D858D90E008958FEF9FEF0895C1
:10027000FC01918D228D892F90E0805C9F4F821B25
:1002800091098F73992708958FEF91E00E943801AB
:1002900021E0892B09F420E0822F0895FC01848D50
:1002A000DF01A80FB11DA35ABF4F2C91848D90E0A0
:1002B00001968F739927848FA689B7892C93A0897B
:1002C000B1898C9180648C93938D848D981306C032
:1002D0000288F389E02D80818F7D80830895EF92DD
:1002E000FF920F931F93CF93DF93EC0181E0888FF0
:1002F0009B8D8C8D981305C0E889F989808185FDD7
:1003000024C0F62E0B8D10E00F5F1F4F0F731127C7
:10031000E02E8C8DE8120CC00FB607FCFACFE889EE
:10032000F989808185FFF5CFCE010E944E01F1CF82
:100330008B8DFE01E80FF11DE35AFF4FF0820B8F0A
:10034000EA89FB898081806207C0EE89FF8960832A
:10035000E889F98980818064808381E090E0DF9181
:10036000CF911F910F91FF90EF900895CF93DF935E
:10037000EC01888D8823C9F0EA89FB89808185FD9D
:1003800005C0A889B9898C9186FD0FC00FB607FCFE
:10039000F5CF808185FFF2CFA889B9898C9185FF3F
:1003A000EDCFCE010E944E01E7CFDF91CF910895AE
:1003B00080E090E0892B29F00E94440181110C9487
:1003C0000000089590E0FC01EA57FF4F3491FC01D2
:1003D000EE53FF4F2491FC01E255FF4FE491EE23D1
:1003E00009F43BC0332339F1333091F038F4313024
:1003F000A9F0323001F584B58F7D12C0373091F00D
:100400003830A1F03430B9F4809180008F7D03C082
:10041000809180008F77809380000DC084B58F77A6
:1004200084BD09C08091B0008F7703C08091B00077
:100430008F7D8093B000F0E0EE0FFF1FE656FF4F78
:10044000A591B4918FB7F894EC91611103C02095F8
:100450002E2301C02E2B2C938FBF08953FB7F89405
:100460008091E7019091E801A091E901B091EA0142
:1004700026B5A89B05C02F3F19F00196A11DB11DFF
:100480003FBFBA2FA92F982F8827820F911DA11D3A
:10049000B11DBC01CD0142E0660F771F881F991F77
:1004A0004A95D1F708958F929F92AF92BF92CF92C3
:1004B000DF92EF92FF926B017C010E942E024B01B2
:1004C0005C01C114D104E104F104F1F00E942E0298
:1004D000DC01CB0188199909AA09BB09883E934020
:1004E000A105B10570F321E0C21AD108E108F108B5
:1004F00088EE880E83E0981EA11CB11CC114D104A3
:10050000E104F10419F7DDCFFF90EF90DF90CF9079
:10051000BF90AF909F908F90089585ED8093BC0021
:100520008091BC0084FDFCCF1092EE0108954091B3
:100530009B01262F30E0240F311D21323105DCF4E0
:100540002091EE012430C9F4FC0180E090E0861790
:1005500058F430919B012191DC01A558BE4FA30FA7
:10056000B11D2C930196F3CF80919B01680F60938E
:100570009B0180E0089581E0089582E00895089548
:10058000E091F2018091F101E81730F4F0E0E55AD2
:10059000FE4F808190E008958FEF9FEF0895909136
:1005A000F2018091F101981750F4E92FF0E0E55A3B
:1005B000FE4F208130E09F5F9093F20102C02FEF49
:1005C0003FEFC90108958091F10190E02091F2017F
:1005D000821B91090895CF93DF9300D0CDB7DEB78A
:1005E000CB01642F49835A830E9497024981842F4B
:1005F0005A81952F0F900F90DF91CF910895CF934F
:10060000DF931F92CDB7DEB7698361E0CE0101961B
:100610000E94970281E090E00F90DF91CF910895C2
:100620000F931F93CF93DF93CDB7DEB727970FB606
:10063000F894DEBF0FBECDBF8E010F5F1F4F9091AC
:10064000F1018091F201981741F08CE992E00E944B
:10065000CF02F80181938F01F2CF8A81698170E026
:10066000FAE08F9F600D711D1124072E000C880B7E
:10067000990B0E94DB0B6093FB017093FC0180934C
:10068000FD019093FE0181E09F81911101C080E006
:1006900080935A018823C1F18C816B8170E09AE0CC
:1006A000899F600D711D1124072E000C880B990B7A
:1006B0000E94DB0B20E030E048EC52E40E94310B5A
:1006C0006093A8027093A9028093AA029093AB0250
:1006D0008E816D8170E0EAE08E9F600D711D1124A6
:1006E000072E000C880B990B0E94DB0B20E030E0FA
:1006F00048EC52E40E94310B6093AC027093AD025F
:100700008093AE029093AF0227960FB6F894DEBFA7
:100710000FBECDBFDF91CF911F910F9108958EBD78
:1007200000000DB407FEFDCF8EB50895CF93C82FFE
:1007300060E08AE00E94E2018C2F0E948F0387E232
:1007400091E00197F1F78FEF0E948F03C82F61E0CE
:100750008AE00E94E2018C2F90E0CF9108950097EB
:1007600069F0FC0101900020E9F73197AF01481BC7
:10077000590BBC018FEF91E00C94EB0080E090E00E
:1007800008958F929F92AF92BF920F931F93CF9332
:10079000DF93CDB7DEB7A1970FB6F894DEBF0FBEDB
:1007A000CDBF19A2423008F44AE08E010F5D1F4F01
:1007B000842E912CA12CB12CA50194010E947E0ABB
:1007C000E62FB901CA0101501109EA3014F4E05DC5
:1007D00001C0E95CD801EC93232B242B252B61F776
:1007E000C8010E94AF03A1960FB6F894DEBF0FBEFA
:1007F000CDBFDF91CF911F910F91BF90AF909F9090
:100800008F900895CF92DF92EF92FF92CF93DF9374
:100810006C01990FEE08FF08F7FE1FC0E091FF0181
:10082000F09100020190F081E02D6DE28FEF91E0F8
:100830000995EC0166277727CB016C197D098E0994
:100840009F094AE00E94C1038C0F9D1FDF91CF9149
:10085000FF90EF90DF90CF9008954AE0C701B60176
:10086000DF91CF91FF90EF90DF90CF900C94C10378
:100870008F929F92AF92BF92CF92DF92EF92FF92B0
:100880001F93CF93DF9300D000D000D0CDB7DEB759
:10089000C090A802D090A902E090AA02F090AB020A
:1008A00020E030E0A901C701B6010E94270B20E03B
:1008B00030E048EC52E487FF0CC0C701B6010E944B
:1008C000CF0C0E94A30BCC24DD24C61AD70A11E05A
:1008D00008C0C701B6010E94CF0C0E94A30B6B0198
:1008E00010E08090AC029090AD02A090AE02B0906B
:1008F000AF0220E030E0A901C501B4010E94270B3E
:1009000020E030E048EC52E487FF0CC0C501B401A0
:100910000E94CF0C0E94A30BEE24FF24E61AF70AD4
:1009200021E008C0C501B4010E94CF0C0E94A30BB6
:100930007B0120E0EAE0F0E0C601BF010E946A0A04
:100940006A8336EF8C2D369F800D112489831B839B
:10095000C701BF010E946A0A6D838E2D369F800DEC
:1009600011248C832E83C6010E94020480E291E050
:100970000E94AF03C7010E94020480E291E00E943E
:10098000AF036C8170E080E090E04AE00E94C10318
:1009900080E291E00E94AF036D8170E080E090E022
:1009A0004AE00E94C10380E291E00E94AF03C09040
:1009B000FB01D090FC01E090FD01F090FE01A70149
:1009C0009601C701B6010E94440D882319F082E206
:1009D00091E01AC046015701E894B7F82FEF3FEFB6
:1009E0004FE75FE7C501B4010E94440D81110FC0BC
:1009F0002FEF3FEF4FE75FE7C501B4010E94270BE0
:100A000018162CF486E291E00E94AF037BC02FEF12
:100A10003FEF4FE75FE4C701B6010E94CA0C18160A
:100A20001CF48AE291E0F0CF2FEF3FEF4FE75FEC4D
:100A3000C701B6010E94270B87FDF3CF20E030E00D
:100A4000A901C701B6010E94270B87FF0FC0E091E3
:100A5000FF01F09100020190F081E02D6DE28FEF37
:100A600091E00995F7FAF094F7F8F0942AE037ED61
:100A700043EA5BE3C701B6010E94BB0A4B015C017C
:100A80000E94AA0B6B017C010E94D90B9B01AC0157
:100A9000C501B4010E94BA0A4B015C014AE0C701DA
:100AA000B6010E94C1038EE291E00E94AF0320E0F4
:100AB00030E040E251E4C501B4010E94CF0C4B018B
:100AC0005C010E94AA0B6B01E12CF12C4AE0C701EA
:100AD000B6010E94C103C701B6010E94D90B9B0158
:100AE000AC01C501B4010E94BA0A20E030E040E246
:100AF00051E40E94CF0C0E94AA0B80E090E04AE0F3
:100B00000E94C10380E291E00E94AF036091B002B5
:100B100070E080E090E04AE00E94C10380E391E051
:100B20000E94AF0346E050E0BE016F5F7F4F8CE94B
:100B300092E00E94EB0226960FB6F894DEBF0FBE3D
:100B4000CDBFDF91CF911F91FF90EF90DF90CF90BD
:100B5000BF90AF909F908F9008950E94920D1F922A
:100B60000F920FB60F9211242F933F934F935F93E1
:100B70006F937F938F939F93AF93BF93EF93FF9365
:100B80008FEF91E00E944E01FF91EF91BF91AF91E5
:100B90009F918F917F916F915F914F913F912F9195
:100BA0000F900FBE0F901F9018951F920F920FB6C7
:100BB0000F9211242F938F939F93EF93FF93E091C4
:100BC0000F02F09110028081E0911502F09116025F
:100BD00082FD12C09081809118028F5F8F732091E7
:100BE0001902821751F0E0911802F0E0E150FE4F37
:100BF000958F8093180201C08081FF91EF919F91A2
:100C00008F912F910F900FBE0F901F9018951F92EC
:100C10000F920FB60F9211242F933F938F939F93B0
:100C2000AF93BF938091E3019091E401A091E5011E
:100C3000B091E6013091E20123E0230F2D3720F43B
:100C40000196A11DB11D05C026E8230F0296A11D26
:100C5000B11D2093E2018093E3019093E401A093FE
:100C6000E501B093E6018091E7019091E801A09140
:100C7000E901B091EA010196A11DB11D8093E70140
:100C80009093E801A093E901B093EA01BF91AF917D
:100C90009F918F913F912F910F900FBE0F901F90BA
:100CA00018951F920F920FB60F9211242F933F9316
:100CB0004F935F936F937F938F939F93AF93BF9364
:100CC000EF93FF938091B900887F803609F49CC030
:100CD00068F5883209F45BC090F4803109F454C09F
:100CE00038F4882309F4F6C0883009F44DC0F6C002
:100CF000883109F44CC0803209F45DC0EFC0803403
:100D000009F468C048F4803309F455C0883309F009
:100D1000E5C08093BE01D8C0803509F44FC0883546
:100D200009F45DC0883409F0D9C0D6C0883909F407
:100D3000C7C0A8F4883709F467C038F4883609F4C6
:100D400063C0803709F460C0C9C0883809F4B8C0EE
:100D5000803909F45FC0803809F0C0C05BC0803BB7
:100D600009F486C038F4803A09F466C0883A09F478
:100D70007FC0B4C0803C09F4A7C0883C09F4A4C07B
:100D8000883B09F48AC0AAC08091E10110C090910B
:100D9000E0018091DF01981770F5E091E00181E0BA
:100DA0008E0F8093E001F0E0E154FE4F808180934C
:100DB000BB0085EC86C08093BE018EC0E091E0014F
:100DC00081E08E0F8093E0018091BB00F0E0E15460
:100DD000FE4F80839091E0018091DF016EC0E09131
:100DE000E00181E08E0F8093E0018091BB00F0E094
:100DF000E154FE4F80838091ED0181116DC081E04F
:100E00008093EC0184EA61C083E08093EE0110924C
:100E1000BD01CFCF8091BD01803208F051C0E0917B
:100E2000BD0181E08E0F8093BD018091BB00F0E099
:100E3000E356FE4F8083BDCF85EC8093BC001092BB
:100E4000EE018091BD01803230F4E091BD01F0E00F
:100E5000E356FE4F10826091BD0170E0E091F30116
:100E6000F091F4018DE991E009951092BD0136C031
:100E700084E08093EE0110929C0110929B01E0911E
:100E8000F501F091F601099580919B01811105C052
:100E900081E080939B0110927B01E0919C0181E0B5
:100EA0008E0F80939C01F0E0E558FE4F8081809387
:100EB000BB0090919C0180919B01981708F479CF19
:100EC00085E88093BC000AC085EC8093BC0010923A
:100ED000EE0104C01092BE010E948D02FF91EF91BD
:100EE000BF91AF919F918F917F916F915F914F9142
:100EF0003F912F910F900FBE0F901F901895EFEF1D
:100F0000F1E01382128288EE93E0A0E0B0E08483E7
:100F10009583A683B78324E031E03183208325ECD9
:100F200030E03587248724EC30E03787268720ECB3
:100F300030E0318B208B21EC30E0338B228B22ECA4
:100F400030E0358B248B26EC30E0378B268B118EEE
:100F5000128E138E148EECE9F2E0138212828483D7
:100F60009583A683B78384E191E091838083E8EA47
:100F7000F2E0148215821682178210821182128288
:100F800013828BEA91E1A2EFBBE380935106909329
:100F90005206A0935306B09354068093550690933F
:100FA0005606A0935706B09358068BE499E5A6E839
:100FB000BCE38093590690935A06A0935B06B093C6
:100FC0005C060895CF93DF93CDB7DEB728970FB6B1
:100FD000F894DEBF0FBECDBF789484B5826084BD27
:100FE00084B5816084BD85B5826085BD85B581602D
:100FF00085BD80916E00816080936E0010928100AB
:101000008091810082608093810080918100816065
:101010008093810080918000816080938000809126
:10102000B10084608093B1008091B00081608093B2
:10103000B00080917A00846080937A0080917A0079
:10104000826080937A0080917A00816080937A0038
:1010500080917A00806880937A001092C1001FB757
:10106000F8948091EB01811124C0E8EBF0E08491C9
:10107000ECECF0E09491E82FF0E0EE0FFF1FEC5560
:10108000FF4FA591B491EC91E92321F461E08AE04E
:101090000E94E2018AE00E9496008CB580618CBDBE
:1010A0008CB580648CBD8DE00E9496008BE00E9420
:1010B00096008091EB018F5F8093EB011FBF8CB591
:1010C0008C7F82608CBD8DB581608DBD8CB58C6050
:1010D0008CBD8CB58F7D8CBD80E18093BA0085EB93
:1010E00090E09093F6018093F50181EC90E090936D
:1010F000F4018093F3011092F2011092F101109229
:10110000F0011092EF011092EE0181E08093ED0169
:101110001092EC0161E082E10E94E20161E083E172
:101120000E94E2018091B9008E7F8093B900809186
:10113000B9008D7F8093B90088E48093B80085E47E
:101140008093BC0080E193E09093F8018093F701D5
:1011500088E394E09093FA018093F901E0910F0203
:10116000F091100282E08083E0910B02F0910C027A
:101170001082E0910D02F0910E028FEC80831092AC
:101180001702E0911302F091140286E08083E0914F
:101190001102F0911202808180618083E09111023E
:1011A000F0911202808188608083E0911102F091B9
:1011B0001202808180688083E0911102F091120216
:1011C00080818F7D808389E00E9496008AE00E9462
:1011D000960061E08AE00E94E20161E089E00E94FD
:1011E000E20161E070E080E090E00E94530260E084
:1011F00089E00E94E20163E270E080E090E00E94FA
:10120000530280E090E00E949603479709F059C18D
:1012100060E08AE00E94E2018AE80E948F0389E18F
:101220000E948F0361E08AE00E94E20183EC90E07B
:101230000197F1F783E391E00E94AF0380E391E02F
:101240000E94AF0383EC282E312C11E0C090FB01EB
:10125000D090FC01E090FD01F090FE0185E090E06F
:101260000E9496038093B002C1010197F1F782E0DA
:1012700090E00E94960384FB992790F990933C0696
:1012800087FF1CC083E090E00E949603082E000CAC
:10129000990B90933E0680933D06C1010197F1F7AB
:1012A00084E090E00E949603082E000C990B909326
:1012B000400680933F0610933B060AC010923B06FF
:1012C00010923E0610923D061092400610923F0684
:1012D00060913D0670913E06072E000C880B990B1D
:1012E0000E94DB0B4B015C0160913F067091400650
:1012F000072E000C880B990B0E94DB0B2B013C0185
:101300002EE23DEB4BE353EBC501B4010E94CF0C41
:10131000A30192010E94BA0A69837A838B839C831A
:10132000609341067093420680934306909344066F
:101330002EE23DEB4BE353EBC301B2010E94CF0C15
:101340009B01AC01C501B4010E94BB0A2B013C0109
:10135000609345067093460680934706909348062F
:101360008091B0028B3008F4A9C08090590690900B
:101370005A06A0905B06B0905C0669817A818B81E9
:101380009C819058A50194010E94CF0C2091510698
:101390003091520640915306509154060E94CF0C52
:1013A00069837A838B839C836093490670934A0692
:1013B00080934B0690934C06C301B2019058A5014F
:1013C00094010E94CF0C2091550630915606409111
:1013D0005706509158060E94CF0C4B015C01609358
:1013E0004D0670934E0680934F0690935006C701AA
:1013F000B6010E942C0B6D837E838F839887C70173
:10140000B6010E943C0D2B013C012D813E814F8194
:10141000588569817A818B819C810E94CF0C6B01F8
:101420007C01A3019201C501B4010E94CF0C9B0174
:10143000AC01C701B6010E94BB0A9B01AC016091DF
:10144000A8027091A9028091AA029091AB020E9419
:10145000BB0A6093A8027093A9028093AA0290939A
:10146000AB0269817A818B819C819058A3019201A2
:101470000E94CF0C6B017C012D813E814F815885EC
:10148000C501B4010E94CF0C9B01AC01C701B6019C
:101490000E94BB0A9B01AC016091AC027091AD024D
:1014A0008091AE029091AF020E94BB0A6093AC02A1
:1014B0007093AD028093AE029093AF020E94D80168
:1014C000C5CE81E491E00E94AF0380E391E00E94E9
:1014D000AF03FFCF97FB072E16F4009407D077FDDC
:1014E00009D00E94A00A07FC05D03EF49095819592
:1014F0009F4F0895709561957F4F0895A1E21A2E30
:10150000AA1BBB1BFD010DC0AA1FBB1FEE1FFF1FA7
:10151000A217B307E407F50720F0A21BB30BE40BF7
:10152000F50B661F771F881F991F1A9469F760953E
:101530007095809590959B01AC01BD01CF010895F8
:10154000AA1BBB1B51E107C0AA1FBB1FA617B707E9
:1015500010F0A61BB70B881F991F5A95A9F7809505
:101560009095BC01CD010895EE0FFF1F0590F491F9
:10157000E02D09945058BB27AA270E94D20A0C9448
:101580007C0C0E94430C38F00E944A0C20F039F485
:101590009F3F19F426F40C94400C0EF4E095E7FB01
:1015A0000C943A0CE92F0E94A10C58F3BA17620769
:1015B00073078407950720F079F4A6F50C94C30C03
:1015C0000EF4E0950B2EBA2FA02D0B01B90190015E
:1015D0000C01CA01A0011124FF27591B99F0593FA2
:1015E00050F4503E68F11A16F040A22F232F342FEA
:1015F0004427585FF3CF469537952795A795F04038
:101600005395C9F77EF41F16BA0B620B730B840B4C
:10161000BAF09150A1F0FF0FBB1F661F771F881F04
:10162000C2F70EC0BA0F621F731F841F48F487955C
:1016300077956795B795F7959E3F08F0B0CF93954E
:10164000880F08F09927EE0F9795879508950E94C7
:10165000160C08F481E008950E94530CE3950C9455
:101660008D0C0E94450B0C947C0C0E944A0C58F087
:101670000E94430C40F029F45F3F29F00C943A0C8F
:1016800051110C94C40C0C94400C0E94A10C68F3F2
:101690009923B1F3552391F3951B550BBB27AA272B
:1016A00062177307840738F09F5F5F4F220F331F65
:1016B000441FAA1FA9F335D00E2E3AF0E0E832D02D
:1016C00091505040E695001CCAF72BD0FE2F29D030
:1016D000660F771F881FBB1F261737074807AB0702
:1016E000B0E809F0BB0B802DBF01FF2793585F4F77
:1016F0003AF09E3F510578F00C943A0C0C94C40CCF
:101700005F3FE4F3983ED4F3869577956795B79558
:10171000F7959F5FC9F7880F911D9695879597F963
:101720000895E1E0660F771F881FBB1F62177307DC
:101730008407BA0720F0621B730B840BBA0BEE1FF1
:1017400088F7E09508950E94AA0B6894B1110C9453
:10175000C40C08950E94A90C88F09F5798F0B92FE7
:101760009927B751B0F0E1F0660F771F881F991FD6
:101770001AF0BA95C9F714C0B13091F00E94C30CA9
:10178000B1E008950C94C30C672F782F8827B85FB9
:1017900039F0B93FCCF3869577956795B395D9F72E
:1017A0003EF490958095709561957F4F8F4F9F4F38
:1017B0000895E89409C097FB3EF490958095709544
:1017C00061957F4F8F4F9F4F9923A9F0F92F96E98D
:1017D000BB279395F695879577956795B795F11102
:1017E000F8CFFAF4BB0F11F460FF1BC06F5F7F4F9F
:1017F0008F4F9F4F16C0882311F096E911C07723B1
:1018000021F09EE8872F762F05C0662371F096E8B9
:10181000862F70E060E02AF09A95660F771F881F88
:10182000DAF7880F9695879597F90895990F00082C
:10183000550FAA0BE0E8FEEF16161706E807F907A2
:10184000C0F012161306E407F50798F0621B730B3D
:10185000840B950B39F40A2661F0232B242B252BBE
:1018600021F408950A2609F4A140A6958FEF811D61
:10187000811D089597F99F6780E870E060E0089502
:101880009FEF80EC089500240A9416161706180698
:101890000906089500240A94121613061406050674
:1018A00008950C94400C0E94A90CD8F3E894E0E051
:1018B000BB279F57F0F02AED3FE049EC06C0EE0F42
:1018C000BB0F661F771F881F28F0B23A62077307A5
:1018D000840728F0B25A620B730B840BE3959A9538
:1018E00072F7803830F49A95BB0F661F771F881FF8
:1018F000D2F790480C944B0D092E0394000C11F470
:10190000882352F0BB0F40F4BF2B11F460FF04C0DA
:101910006F5F7F4F8F4F9F4F0895EF93E0FF07C09A
:10192000A2EA2AED3FE049EC5FEB0E94D20A0E9456
:101930007C0C0F90039401FC9058E8E6F0E00C94C6
:10194000570D57FD9058440F551F59F05F3F71F0E8
:101950004795880F97FB991F61F09F3F79F0879516
:101960000895121613061406551FF2CF4695F1DF9F
:1019700008C0161617061806991FF1CF869571052F
:10198000610508940895E894BB2766277727CB0163
:1019900097F908950E94160C08F48FEF08950E949D
:1019A000E20C0C947C0C0E94430C38F00E944A0C10
:1019B00020F0952311F00C943A0C0C94400C112457
:1019C0000C94C40C0E94A10C70F3959FC1F3950F69
:1019D00050E0551F629FF001729FBB27F00DB11DB3
:1019E000639FAA27F00DB11DAA1F649F6627B00D43
:1019F000A11D661F829F2227B00DA11D621F739F2C
:101A0000B00DA11D621F839FA00D611D221F749F39
:101A10003327A00D611D231F849F600D211D822F80
:101A2000762F6A2F11249F5750409AF0F1F08823A7
:101A30004AF0EE0FFF1FBB1F661F771F881F9150D4
:101A40005040A9F79E3F510580F00C943A0C0C943D
:101A5000C40C5F3FE4F3983ED4F386957795679581
:101A6000B795F795E7959F5FC1F7FE2B880F911DFE
:101A70009695879597F908959F930E94530C0F9020
:101A800007FCEE5F0C948D0C0E94160C880B990BD2
:101A900008959F3F31F0915020F487957795679591
:101AA000B795880F911D9695879597F908959F93FF
:101AB0008F937F936F93FF93EF939B01AC010E94F1
:101AC000CF0CEF91FF910E946B0D2F913F914F91A1
:101AD0005F910C94CF0CDF93CF931F930F93FF92E2
:101AE000EF92DF927B018C01689406C0DA2EEF0141
:101AF0000E94E20CFE01E894A59125913591459153
:101B00005591A6F3EF010E94D20AFE019701A801A8
:101B1000DA9469F7DF90EF90FF900F911F91CF91CA
:101B2000DF91089581E090E0F8940C94970DF8947B
:021B3000FFCFE5
:101B3200000000006F01EB00380116012A01B60116
:101B420000000000FF02EB02E302CF02C002BF026C
:101B520009006E616E00696E66006F7666002E0087
:101B62000D0A0077617920746F20676F206D616EB6
:101B7200004D6F7573652063616D206661696C65E8
:0A1B82006420746F20696E6974001E
:00000001FF
